:020000000C945E
:1000020046000C9400000C9400000C9400000C9428
:1000120000000C9400000C9400000C9400000C945E
:1000220000000C9400000C9400000C9400000C944E
:1000320000000C9400000C9400000C9400000C943E
:1000420000000C9400000C9492000C9400000C949C
:1000520000000C9400000C9400000C9400000C941E
:1000620000000C9400000C9400000C9400000C940E
:1000720000000C9400000C9400000C9400000C94FE
:1000820000000C9400000C940000F894EE27ECBBE6
:10009200F1E0F5BFE5BFE0936C00F8E1F1BDE1BD31
:1000A2008DE0A2E0BB27ED938A95E9F780E090E12D
:1000B200A0E0B1E0ED930197E9F78BBFEFEFEDBF61
:1000C200E0E1EEBFC0E0D5E00C9487005D9BFECF7F
:1000D200E881ECB9EAE0F0E04BD0E5E3ECB95D9AF7
:1000E20022960895F894E5E0F0E042D0E2E0E2B929
:1000F200E0E0EBB9E8EDEAB9E6E0E0939500789448
:10010200E0E0E0939000E7E6E9B90895EBDFE2E092
:10011200F0E0FA93EA93DADFE8EEF3E029D0F7CFE2
:10012200FFCF0A921A92FA926A937A938A939A93D7
:10013200AA93BA93EA93FA93EFB7EA931A930A93BC
:100142000CB11127E1E0F0E013D01A930A93BEDF5D
:1001520009911991E991EFBFF991E991B991A991A9
:100162009991899179916991F990199009901895CD
:10017200FA93EA930C94BD00E991F991309639F023
:1001820080EA9FE00197F1F7A8953197C9F70895A2
:00000001FF
