:060000000C9446000C9474
:1000060000000C9400000C9400000C9400000C946A
:1000160000000C9400000C9400000C9400000C945A
:1000260000000C9400000C9400000C9400000C944A
:1000360000000C9400000C9400000C9400000C943A
:1000460000000C9400000C9400000C9400000C942A
:1000560000000C9400000C9400000C9400000C941A
:1000660000000C9400000C9400000C9400000C940A
:1000760000000C9400000C9400000C9400000C94FA
:1000860000000C940000F894EE27ECBBF1E0F5BFFD
:10009600E5BFE0936C00F8E1F1BDE1BD8DE0A2E0C3
:1000A600BB27ED938A95E9F780E090E1A0E0B1E007
:1000B600ED930197E9F78BBFEFEFEDBFE0E1EEBF00
:1000C600C0E0D5E00C946F005D9903C0E881ECB9FF
:1000D600FBCF5D9A22960895EEEFE2B9E0E0EBB928
:1000E600E8E5EAB9E6E0E09395007894E0E0E0938D
:1000F6009000E7E6E9B9EFEFF0E005D0E0E0F0E0E8
:1001060002D0F9CFFFCFFA93EA93DEDFE0EDF7E016
:10011600FA93EA930C948F00E991F991309639F0AD
:1001260080EA9FE00197F1F7A8953197C9F70895FE
:00000001FF
